:020000020000FC
:0200000016C028
:10002C002FC108E00EBF0FEF0DBF0FE104B90FE1B8
:10003C0007B952985A9A53985B9A54985C9A559867
:10004C005D9A01E0009300010027009301010093E9
:10005C00020101E005B911272227D9D0F5D04C991E
:10006C0004C04D9902C04B9934C04A99F8CFE5D0E1
:10007C004A99F5CF103019F0113061F016C02227D3
:10008C002093000121E020930101289A29982A98B5
:10009C00139516C022272093010121E02093020121
:1000AC002898299A2A9813950BC02227209302018D
:1000BC0021E020930001289829982A9A112700C042
:1000CC004C9904C04D9902C04B9903C04A9BF8CF80
:1000DC00C6CFB3D04B9901C0C2CF4B9BFECF00C053
:1000EC0099D055E0113019F0123059F014C092D05B
:1000FC0062E088279FD090E098B961E088279AD079
:10010C0014C088D063E0882795D090E098B962E05D
:10011C00882790D00AC07ED064E088278BD090E0EE
:10012C0098B963E0882786D000C05A95D9F600C0EC
:10013C0074D0113019F0123031F00AC06ED06FE06B
:10014C00882778D00AC069D062E1882773D005C0AF
:10015C0064D065E188276ED000C062D051E01130C8
:10016C0059F052E01230F9F053E034C059D011304C
:10017C0019F01230C1F02EC053D065E02B9A8827AD
:10018C0059D090E098B963E0882754D02B9848D088
:10019C0065E02C9A88274ED090E098B963E08827C8
:1001AC0049D02C982FC03CD067E02B9A882742D09E
:1001BC0090E098B965E088273DD02B9831D067E066
:1001CC002C9A882737D090E098B965E0882732D0F0
:1001DC002C9818C025D069E02B9A88272BD090E05A
:1001EC0098B967E0882726D02B981AD069E02C9A0A
:1001FC00882720D090E098B967E088271BD02C98EE
:10020C0001C0B4CF5A95E9F700C00DD0FFCF91E0F3
:10021C0098B9089592E098B9089594E098B9089522
:10022C0098E098B9089590E198B9089588276A954F
:10023C0009F408958230D1F3FDCF32E34FEF4A95A4
:10024C00F1F73A95D9F7089500E00093800000E0AB
:10025C000093810000E000938500009384000DE37F
:10026C000093890008E00093880002E000931600D8
:10027C0002E000936F000DE00093810078940895E4
:08028C00569A4E9A82E0189583
:00000001FF
